:1000000002308A00CC2A0000D22241224927471719
:100010002E170000C437A0206D1DA53A0000250052
:100020004E34E9327410C437BA127517A53A00017C
:100030004300403084008313000803192C28063045
:10004000F800F701F70B2228F80B21287B30F70086
:10005000F70B2828800B1F280800461831280812A3
:1000600032280816831608128312C61839288812F7
:100070003A288816831688128312461941280813D5
:1000800042280817831608138312C61949288813B3
:100090004A288817831688130000831209148316D0
:1000A00009100330F700F70B532883120910831649
:1000B000091083120800C701831608160030831246
:1000C000081A0130C7048316881600308312881A74
:1000D0000130F7000310F70D7708C70483160817DF
:1000E00000308312081B0130F700F70DF70DFC30CC
:1000F000F7057708C7048316881700308312881B1A
:100100000130F700F70DF70DF70DF830F705770818
:10011000C7044708F8000800831609108910091160
:1001200083128910831689100816881608178817F5
:10013000831209158316091100008312091483160E
:100140000910000083125B207808C600091083168E
:10015000091000008312091483160910AF28B02873
:10016000000083125B207808C5000910831609106F
:1001700008128812081388138312460EF700F03015
:10018000F70577084504F8007808C500C51FCA2898
:1001900083169428C308031DCF288910D0288914FA
:1001A00083168910000083120911831609110000BB
:1001B00083120910831609108312440EC5000F30F4
:1001C000C5054508C6002D2044080F39C500C600E6
:1001D0002D2008002830BC000C30BD000130BE00CE
:1001E0000630BF0009108316091083128910831688
:1001F0008910831209118316091108128812081335
:1002000088130910891009110F308312C0001920BA
:100210000130BB003B08033C031C16290330C60019
:100220002D200530C0001920BB0A0A290230C60063
:100230002D200530C0001920BB013B08033C031CE6
:100240002D293C303B07840083130008C000C30104
:100250004008C4008C20BB0A1D298A110A12DD2A1D
:10026000400B332936294030C1003729C101013004
:100270003F02C10741088038C200C3014208C400E0
:100280008C2008003E08073A031950290B3A03193D
:100290005529063A03195D29023A03196329682989
:1002A0000130BF00C00030216D29C3010130C400FE
:1002B0008C200230C00019206D290130BF000230AF
:1002C000C00030216D29C3011030C4008C206D297D
:1002D0000130C3003E08C4008C2008000B08BB009E
:1002E0008B13831603178C170C1400000000831265
:1002F0000313BB1B8B1703170C087F390319C22983
:100300000313BB0003170D080313BC0003170F08EA
:100310000313BD003B08BE0042213C0803178D00BB
:1003200003133D0803178F0003130B08BE008B1344
:10033000831603178C170C1400000000831203139C
:10034000BE1B8B1703170C0D0E0D7F390319C22925
:100350000313BB0003170D080313BC0003170F089A
:100360000313BD003B08BE0042213C0803178D006B
:1003700003133D0803178F008D0A03198F0A031317
:100380006E290317031308004B3084008313000801
:100390000319D7290630F800F701F70BCD29F80B20
:1003A000CC297B30F700F70BD329800BCA29080032
:1003B0003908840083133A1883173F088000840AA1
:1003C0008001B90A0319BA0A08003E08F8013D0283
:1003D0000318ED293D08F700F929F7010830BF009F
:1003E000BD0DF70D3E0877020318F700F80DBF0B9F
:1003F000F029080078083B08BD006430BE00E52104
:100400007708BB0078083030031D0D2ABC1C142A65
:10041000BC19142A3C1A2030102ABC113C123C147E
:10042000F8077808BF00D8213B08BD000A30BE009D
:10043000E5217708BB0078083030031D252ABC1958
:10044000292A3C1C292A3C1A2030F8077808BF00CA
:10045000D8213030BB073B08BF00D82108008008F6
:100460000319442ABC010408BB003C10831B3C1444
:100470000008BE0042213B08840083133C18831708
:10048000840A0319850A2F2A08000B08BC008B1365
:10049000831603178C170C1400000000831203133B
:1004A000BC1B8B1703187C2A03170C087F39031316
:1004B000BC0003170D080313BD0003170F08031337
:1004C000BE003C08BF00D8213D0803178D00031370
:1004D0003E0803178F0003130B08BF008B1383160E
:1004E00003178C170C140000000083120313BF1BAA
:1004F0008B17BB0B7C2A9B2A03170C0D0E0D7F3923
:100500000313BC0003170D080313BD0003170F08E6
:100510000313BE003C08BF00D8213D0803178D001F
:1005200003133E0803178F008D0A03198F0A031067
:100530000313BB0B452A080020083802031CAD2A10
:1005400083160810831208148316881083128810EB
:100550008316861083128610B52A8316081083121C
:10056000081083168810831288148316861083124D
:10057000861020082D3C0318C92A83168610831282
:10058000861483168810831288108316081083122D
:1005900008108A110A12D22B03081F398300233056
:1005A000B800BA01B90183161F149F141F159F11BB
:1005B00007309C0083138312EA280130BF00C0007B
:1005C0003021043003178D0000308F0003136E219B
:1005D0000230BB00FA30CB00C421BB0BEA2A0C303E
:1005E000BE004221BB01BC01BD01BE01BF0183169B
:1005F0000610831206146330F700F70BFD2A002B58
:1006000006101930CB00C42106148316061463307B
:10061000F700F70B092B0C2B8312061C132B003051
:10062000F800632B152B061C132B6330F700F70B18
:10063000172B1A2B0618202B0030F800632B222BC7
:100640000618202BC1014108043C031C4D2BC0019E
:100650004008073C031C4B2B061C2C2B5330F70087
:10066000F70B302B061C492B3B30410784008313CA
:100670004008073CF8000130F700F8080319442B44
:100680000310F70DF80B402B7708000480000618C4
:10069000472BC00A282BC10A232B3C083B073D07E8
:1006A0003E07C2003F0842020319592B0030F800F0
:1006B000632B3D08A0003E08A1003B08A2003C08B7
:1006C000A3000130F800F8080319D12BBA01243037
:1006D000B9004F30BF00D8216E30BF00D8213A306A
:1006E000BF00D8213808BB001B30BC00FA212030E5
:1006F000BF00D8210130BF00C00030212430840069
:1007000083132F22BA012430B9000A3003178D0059
:1007100000308F00031006300313BB00452222086F
:10072000BB001B30BC00FA210830BF000130C00004
:1007300030212430840083132F220F3003178D00C3
:1007400000308F0003136E21BA012430B90010303D
:1007500003178D0000308F00031009300313BB0016
:1007600045222008BB001B30BC00FA212E30BF0000
:10077000D8212108BB001B30BC00FA210130BF008A
:100780000230C00030212430840083132F22DF3058
:10079000BE004221183003178D0000308F00031374
:1007A0006E219C2A8316081583120819E62B0A303D
:1007B000CB00C4218316081583120819E42B831675
:1007C00008158312081DDF2B0130B8078316881522
:1007D00083128819FA2B0A30CB00C421831688159E
:1007E00083128819F82B831688158312881DF32B22
:1007F0000130B80283160514831205180E2C0A3036
:10080000CB00C42183168815831288190C2C8316FB
:1008100088158312881D072C3808A000F22A63006F
:02400E00723FFF
:00000001FF
;PIC16F877A
;CRC=AB99  CREATED="24-Dec-23 15:19"
